:020000040800F2
:10000000B80600207D190008851800088718000828
:10001000891800088B1800088D18000800000000DF
:100020000000000000000000000000008F18000821
:1000300091180008000000009318000895180008A7
:1000400095190008991900089D190008A1190008C0
:10005000A5190008A9190008AD190008B119000870
:10006000B5190008B9190008BD190008C119000820
:10007000C5190008C9190008CD190008D1190008D0
:10008000D5190008D9190008DD1900080000000082
:10009000000000000000000000000000E11900085E
:1000A000E5190008E9190008ED190008F119000820
:1000B000F5190008F9190008FD190008011A0008CF
:1000C000051A0008091A00080D1A0008111A00087C
:1000D000151A000899180008191A000800000000F5
:1000E000A51800081D1A0008211A000800000000C9
:1000F000000000000000000000000000251A0008B9
:1001000000000000291A00082D1A0008311A000802
:1001100000000000000000000000000000000000DF
:10012000351A0008391A00083D1A0008411A00085B
:10013000451A000800000000000000000000000058
:10014000000000000000000000000000491A000844
:100150004D1A0008511A0008551A0008591A0008CB
:100160005D1A0008611A000800000000000000008D
:10017000000000000000000000000000000000007F
:1001800000000000651A00080000000000000000E8
:10019000691A000838B5040001D1012032BD00F011
:1001A00021F808B900F022F800F012F800F023F866
:1001B000FFE7416100F001F832BD2068C16841F4F9
:1001C0000051C1600020686020216970A9707047EB
:1001D000242068702068C16821F40051C160204665
:1001E00000F0AFB904F13805687870470021297034
:1001F000204600F035BA2068016921F49041016180
:100200002068416921F02A0170472DE9F84305462D
:1002100005F138070C46787820281646984646D1CE
:10022000002C14BF002E012042D0387801283ED087
:10023000012139700020786021227A7000F054FA90
:100240008146AE84EE840020387003E02A6814F8FA
:10025000011B5160E88CE0B1E88C411EE9844B46FB
:10026000A868CDF80080B0F5805F0DD100F022F8CD
:10027000B8B920882968C0F30800486028690028B8
:1002800014BF641CA41CE5E700F014F80028DDD0BE
:1002900007E0CDF800804B460022402100F00CF82A
:1002A00008B1032004E020207870002000E0022044
:1002B000BDE8F283002280212846B3E0416921F0A5
:1002C00040014161606B704770B504462068036867
:1002D000C668456913F00F0206F0200003F0200104
:1002E00007D1002918BF00285BD02046BDE8704028
:1002F000DEE0EA0702D416F4907F52D0DA0705D583
:10030000F60503D5E26B42F00102E2635A0705D518
:10031000EE0703D5E26B42F00202E2639A0705D5CD
:10032000EE0703D5E26B42F00402E2631A0706D53A
:1003300008B9EA0703D5E36B43F00803E363E26B14
:10034000002A6ED000291EBF0028204600F0B0F819
:1003500020684069E16B0A0701D440061BD520469E
:1003600000F092F8206841694A060FD5FFF7A6FF12
:1003700060B10FF231110165606B00F0BBF900282C
:100380004FD0606B016DBDE8704008472046BDE866
:10039000704000F0C1B9204600F0BEF90020E063D3
:1003A00070BD18062CD531062AD594F839002128BD
:1003B00037D1A068B0F5805F206A0CD1018822682F
:1003C000C1F30801516020690028206A0CBF811C1C
:1003D000411C216204E0411C2162226800785060C7
:1003E000E08C401EE08480B2D8B92068C16821F05A
:1003F0008001C1602068C16841F04001C16070BDEA
:1004000058060ED571060CD52068C16821F0400150
:10041000C1602046202184F83910BDE8704000F00A
:100420007CB970BD2DE9F041069C05460E4690460C
:100430001F46286801683140B1420CBF01200020EE
:10044000404517D114F1010FF3D024B100F04CF95D
:10045000C01B8442EDD22868C16821F4D07100F03D
:100460000CF805F1380020214170817000210170E5
:10047000032000E00020BDE8F081C16028684169E8
:1004800049084900416170470168CA6822F49072C6
:10049000CA6001684A69520852004A61202180F806
:1004A0003A107047806B0021C185C18400F034B9D7
:1004B00010B590F83A10222941D18168B1F5805FDA
:1004C0002AD1826A0169134601BB04686168C1F3DD
:1004D0000801921C82621980C18D491EC18589B2B2
:1004E00059BB0168CA6822F02002CA600168CA6864
:1004F00022F48072CA6001684A69520852004A6157
:10050000202180F83A1000F009F916E001684968E6
:1005100001F0FF01521CDDE701690029816A05D164
:100520004A1C826203685A680A70D5E74A1C8262D4
:1005300003685A6802F07F02F6E7002010BD02202F
:1005400010BDD0B50646192432681169F06821F44F
:100550004051014311616FF06307D3682C48B168C3
:10056000034030690B4371690343F0690B43034354
:10057000D3605169B06921F4407101435161F3695D
:1005800024482549B3F5004F1FD18A4218BF824243
:1005900002D100F06FF901E000F064F90246A4FB1B
:1005A00002017268D30F520000F07CF900F036F8B7
:1005B000FF0032376420B7FBF0F0420002F4F8721B
:1005C00002EB011200F007001DE08A4218BF8242D0
:1005D00002D100F04FF901E000F044F90246A4FB1B
:1005E00002017268930F920000F05CF900F016F8B7
:1005F0003F0132376420B7FBF0F000F0F00202EB6D
:10060000011200F00F00316880188860D0BD000032
:10061000F369FFFF00140140001001406421B0FBAA
:10062000F1F107FB0107704782B000200090002223
:100630002948416841F480414160416801F48041AA
:10064000009100990092036843F0805303600068B2
:1006500000F0805000900098072002B000F0B3B97D
:1006600010B586B004461422002101A800F000FA5B
:1006700021681A4881422CD1002219480092416910
:1006800041F010014161416901F0100100910099B0
:1006900000924FF4C061036843F00103036002223B
:1006A000006800F00100009000980E48019102924D
:1006B00000210391032207210591049201A900F072
:1006C000E1F900220021252000F08AF9252000F020
:1006D000A4F906B010BD00004038024000100140EF
:1006E000303802400000024001484068704700BFB7
:1006F000A802002090F83510022903D0802242651C
:1007000001207047052180F8351000680268520802
:10071000520002600020704770477047704730B544
:10072000016884684218416802EB5103C90703D588
:100730004C4401E0491C08D19A4218BF12F9011B30
:1007400001D10C3030BD12F8015B002904F8015BC7
:10075000F0D4491EF7D5EFE72DE9F04104000F462C
:1007600054D0494E306800F00F00B84202D200F079
:1007700073F84BD12068454D810712D5400703D54A
:10078000A96841F4E051A9602078010703D5A86861
:1007900040F46040A860A968A06821F0F00101431E
:1007A000A9602178C80729D56068012802D1296885
:1007B0008A0305E0022818BF032803D129688A01AB
:1007C00003D423E029688A0720D5A968890840EA6C
:1007D0008100A860FFF788FF8046A868616800F084
:1007E0000C00B0EB810F09D0FFF77EFFA0EB0800F3
:1007F00041F289318842F0D303202BE0306800F0C9
:100800000F00874204D200F027F801D0012021E038
:100810002078410705D5AA68E06822F4E052024337
:10082000AA602178080706D5A968206921F46041EB
:1008300041EAC001A96000F019FAAA681449154BF1
:10084000C2F30312895CC84018601348006800F0C6
:100850003DFA0020BDE8F0813770316801F00F01EA
:10086000B94270470B480D4A006813680C49C3F33E
:10087000822206E00748094A006813680849C3F362
:100880004232895CC8407047003C02400038024058
:100890004C180008B4020020B002002008380240C2
:1008A0008C190008D3BBD9B1B2F5803F5BD2022AC4
:1008B0001ED98C46B1FBF2F102FB11C31B0443EAC3
:1008C0001043B3FBF2FC02FB1C3380B240EA03434B
:1008D000B3FBF2F002FB103240EA0C4000237047F9
:1008E000022A05D98446B0FBF2F002FB10C2704721
:1008F0004AB105D100F0010249085FEA30007047B3
:1009000000220023704700F001BA0B000200002112
:1009100000207047F7D3002200237047904271EB0C
:10092000030CF2D370B5B1FA81F4B3FA83F52C1B42
:10093000A340C4F1200532FA05F63343A2405FF02C
:100940000046E64002E05B085FEA3202841A71EB7F
:10095000030524BF204629467641F4D302000B004C
:100960003000002170BD70B5B1FA81F4B2FA82F5A1
:10097000C4F120046419B4F12006DAD3B2405FF068
:100980000044F440002502E052085FEA3303C61A2F
:1009900071EB020E24BF3046714664416D41F3D3C2
:1009A00002000B002000290070BD000009010200B8
:1009B00002D4294881547047284B02F00F021A4490
:1009C00002F8041C7047264B19684FF6FF0200021C
:1009D000114000F4E0600843224908431860704762
:1009E00070B51F4B1C68C4F302230124C3F1070533
:1009F000052D2EBF0F2504FA05F56D1E1E1D072EB1
:100A000034BF0023DB1E2940994004FA03F3BDE8FC
:100A100070405B1E1A401143C8E7010007D4012251
:100A200000F01F01104B8A40400943F82020704716
:100A300010B5401EB0F1807F01D3012010BD0B4CDA
:100A400060600F214FF0FF30FFF7B0FF0021A16081
:100A500007202060002010BD00E400E018ED00E059
:100A60000CED00E00000FA0500E100E010E000E01D
:100A700010B5044610460A460146204600F048F9E3
:100A8000204610BD2DE9F84F0D4600266E496F4AED
:100A90000F23044601202F68B04000EA0708804574
:100AA00040F0B2804FEA460C032707FA0CF76FEAD2
:100AB000070E6F68012F18BF022F03D0112F18BF28
:100AC000122F12D1A768D5F80C900EEA070709FA81
:100AD0000CF949EA0707A760676827EA00006F6812
:100AE000C7F30017B74038436060E068AF680EEAAC
:100AF000000007FA0CF73843E060B0006F68022F7F
:100B000018BF122F12D1F70804EB870700F01C0959
:100B1000D7F820A003FA09FB2AEA0B0AD5F810B08F
:100B20000BFA09F949EA0A09C7F8209027680EEA82
:100B3000070E2F7907F0030707FA0CF747EA0E07AD
:100B400027606F68FF005FD5002700974FEA960C7B
:100B5000176847F48047176000F00C00176807F427
:100B60008047009703FA00FE009F394F57F82C701A
:100B700027EA0E0E374FBC4208BF002713D0364F6E
:100B8000BC4208BF01270ED0344FBC4208BF022729
:100B900009D0334FBC4208BF032704D0314FBC42B9
:100BA0000CBF0427072707FA00F0294F40EA0E0080
:100BB00047F82C006FEA08000F6800EA070C6F681E
:100BC000FF0348BF48EA0C0CC1F800C04F6800EAB8
:100BD000070C6F68BF0348BF48EA0C0CC1F804C09B
:100BE0008F6800EA070C6F68FF0248BF48EA0C0CE8
:100BF000C1F808C0CF6800EA070C6868800248BFE7
:100C000048EA0C0CC1F80CC0761C0F2E7FF642AFE0
:100C1000BDE8F18F0069084018BF0120C0B27047DD
:100C200002B909048161704742690A408A4208BFDB
:100C30000904816170470C4A136803421CBF1060AD
:100C400000F040BA70470000003C014044380240C8
:100C50000838014000000240000402400008024041
:100C6000000C024000100240143C014030B5144C0E
:100C7000606800F00C00042802D0082802D01DE0B3
:100C8000104830BD226820680023410202F03F0274
:100C900004D525680B49C5F3881003E020680A498C
:100CA000C0F38810A1FB0001FFF7FCFD2168C1F330
:100CB0000141491C4900B0FBF1F030BD024830BD94
:100CC0000438024000127A000024F40038B50D4DBB
:100CD0000D4B2A7804464FF47A711868B1FBF2F292
:100CE000B0FBF2F0FFF7A4FE50B9102C08D200229E
:100CF00021464FF0FF30FFF773FEAC60002032BD9D
:100D0000012032BDA8020020B4020020704700007C
:100D100062F30F2262F31F42401810F0030308D061
:100D2000C91A1FD3DB0748BF00F8012D28BF20F8E0
:100D3000022D130030B414461546103928BF20E99F
:100D40003C00FAD8490728BF20E90C0048BF40F80A
:100D5000042D890028BF20F8022D48BF00F8012D7E
:100D600030BC7047C91818BF00F8012DCB0728BF49
:100D700000F8012D7047000030B58FB009A80FF2C0
:100D8000E831DFF89443182200F006FA03A80FF2C6
:100D9000F031152200F000FA616CE048E04AB1FB46
:100DA000F0F030308DF800000A23B1FBF2F00A2297
:100DB00000F059F88DF801000A25DA48B1FBF0F38C
:100DC00000F059F88DF802300A25D74B00F051F8A1
:100DD0008DF803300A2542F2107300F04AF88DF8BE
:100DE00004304FF47A70B1FBF0F00A2300F03BF8C6
:100DF0008DF805000A236420B1FBF0F0B0FBF3F39B
:100E000002FB1300B1FBF2F30A2502FB1311303091
:100E1000B3FBF5F530318DF8060002FB15358DF882
:100E2000081030358DF807504FF4FA73172209A9CE
:100E3000201DFFF7EAF962884FF4FA7304F1780194
:100E4000201DFFF7E2F94FF4FA73142203A9201DC5
:100E5000FFF7DBF94FF4FA7309226946201DFFF70B
:100E6000D4F90FB030BDB0FBF3F302FB1300303008
:100E70007047B1FBF3F3B3FBF5F502FB15333033E9
:100E800070472DE9F84789B080468A46914610227E
:100E9000002105A8FFF7ECFD102200F0C1F89E48E4
:100EA000468836050025002001AF20E0A5EB04119F
:100EB00018F8052019446D1C0A74441CB5EB041F76
:100EC000F4DB1020009001AB05AA1021504600F081
:100ED000AEFA0020002205AB8446395C09F8011BFC
:100EE0001A5407F800C0401C1028F6DB2046B0EB6F
:100EF000166F05ABE1DB0AB0BDE8F0878B480168EF
:100F000041F08071016000218948026842F00102CD
:100F100002604160704710B586B000F0E7FA00F05B
:100F200083F800F07CF800200090824C8248016831
:100F300041F004010160026802F004020092002204
:100F400000990092036843F080030360016801F098
:100F50008001009100990092036843F0010303604F
:100F6000016801F0010100910099009220210368BD
:100F700043F002030360006800F002000090009854
:100F80002046FFF74DFE4FF400506C49019002914E
:100F90000122039201A96A48FFF774FD002203921F
:100FA00004920C200221019002910722059201A9CE
:100FB0002046FFF767FD20210191012200210391C6
:100FC0000491029201A92046FFF75CFD0022002156
:100FD0002820FFF705FD2820FFF71FFD4E4C59483C
:100FE00060604FF41651A1600020E06020616061F4
:100FF0000C21E0612062A161201DFFF7CBF808B150
:1010000000F0A8F8FFF77AFF0121012000F088FA2C
:1010100020780128FCD1002121700121F6E714225B
:10102000002101A8FFF724BD80B592B03022002135
:1010300006A8FFF71DFDFFF7F2FF002000904FF418
:10104000A0234148016841F08051016000210068FF
:1010500000F08050009000983C480091026822F413
:10106000404242F4004202600122006800F4404025
:10107000009006A80099069202214FF480020D927A
:101080000C91A8220F920421072207930E91109130
:10109000119200F05FFA08B172B6FEE702210291E8
:1010A0000F204FF480510190002204910392059289
:1010B000022101A8FFF750FB08B172B6FEE713B09A
:1010C00000BD000038B50446FFF7AEFFB4F5005F81
:1010D000114D1ED1002400E0641C4FF4005118484B
:1010E000FFF798FD0028F7D0E4B2332C11DB184C41
:1010F00019A10020206005F1780205F14800FFF7F2
:10110000C0FE2068686420210A48FFF78DFDFFF7C4
:1011100033FE0120287031BD0002002000E1F505FA
:101120008096980040420F00A0860100FCED00E090
:10113000001000E0000002403038024000002110A2
:10114000000802400010014040380240007000409A
:10115000041000E072B6FEE7646563727970740093
:1011600000000000000000000D0A44656372797001
:10117000746564206D6573736167653A200D0A00BC
:101180000D0A457865637574696F6E2074696D65C5
:101190003A200D0A000000004AB1000011F8013B9E
:1011A000521E00F8013B1CBF11F8013BF8E77047E5
:1011B00030B500220023851811F8014B05F82340B3
:1011C0005B1C042BF8DB521C042AF3DB002030BD2F
:1011D00010B500220023841814F8234001F8014BB5
:1011E0005B1C042BF7DB521C042AF3DB002010BD30
:1011F0002DE9F041002818BF002A01D0102902D0A3
:101200004FF0FF3056E0144602F1B003002100EB2E
:1012100081056F782E783F0447EA0667AE78ED784F
:1012200047EA06272F4344F82170491C0329EEDDC5
:101230000027354D354EE0682168C0F3074C00F0BB
:10124000FF0E16F80CC016F80E8081EA0C61C0F390
:10125000072C16F80CC081EA0C414FEA106C81EAA9
:10126000082116F80CE055F827808EEA010188EA7B
:10127000010121617F1C6168D4F810C0D4F808E036
:101280008CEA0101616181EA0E014840A161E061DF
:1012900010340A2FCFDB02F1A0010B20002251F8FD
:1012A000224043F82240521C032AF8DD1039103343
:1012B000401EF3D1BDE8F081FFB50022002300EB12
:1012C000820451F82350C2F10306F600F5406F4640
:1012D00007EB8206F5546E4606EB8207E55CFE5C82
:1012E0007540E5545B1C042BEBDB521C042AE5DB48
:1012F00010E010B50021064A435CD45C4454491CFC
:101300001029F9D1002010BD5C1800080000002051
:1013100000010020002004B0F0BDFFB500F01DF872
:1013200000F00AF824FA05F7C6F12006B4403C4361
:1013300000F01CF8F4DDEDE700EB81035C781D782C
:10134000DE78240444EA05649D7844EA05243443A5
:101350004DF82140CD00CE007047694600220023A1
:101360000024002581E83C00002170474DF8214011
:10137000491C250E270C260A03291D705F709E70DC
:10138000DC70704730B5034600200822CCB2DD0780
:1013900048BF60404900240648BF81F01B015B083C
:1013A000521EF3D1C0B230BDF8B588B0054604A8CE
:1013B0004AA11022FFF7F0FE0020295C0DF8001072
:1013C000401C1028F9D10026002704A81DF807109A
:1013D00010F82600FFF7D6FF04460DEB070004AA1D
:1013E000017902EB86004078FFF7CCFF44400DEB1B
:1013F000070004AA017A02EB86008078FFF7C2FF9B
:1014000044400DEB070004AA017B02EB8600C07884
:10141000FFF7B8FF444005EB8600C4557F1C032F3F
:10142000D3DD761C032ECFDD002009B0F0BD2DE901
:10143000F04316460025AC46AE46A8460028DDB06F
:101440006A4618BF002E82E820511F4630AC07D0F4
:1014500033B1102904D8DDF8908118F00F0F02D0B5
:101460004FF0FF302EE004AA1021FFF7C1FEA9467D
:1014700025E031466846FFF79BFE214600F027F83D
:1014800009256846FFF749FF6846FFF732FF00F07D
:1014900020F86846FFF788FF6D1EF2D16846FFF717
:1014A00028FF6846FFF739FF00F00FF83946684615
:1014B000FFF78EFE1037103630AC09F11009C14528
:1014C000D7D300205DB0BDE8F08304F11001684679
:1014D000F2E6103421466846EEE600000E0B0D09D8
:1014E000090E0B0D0D090E0B0B0D090E80B50B48E7
:1014F000016841F400710160026842F48062026098
:10150000016841F4807101600320FFF75CFA00205C
:10151000FFF7DCFBFFF788F8002002BD003C02402B
:101520000A4A13689B0840EA8300106001290848B2
:10153000026842F0040202600FBF30BF40BF20BF0C
:1015400020BF016821F00401016070470070004075
:1015500010ED00E02DE9F843040015D02078B04EDE
:10156000C10713D5B06800F00C00042807D0B0689C
:1015700000F00C0008283DD1706841023AD530686F
:10158000810303D56068002800F043812078A54FCF
:10159000810719D5B06810F00C0F07D0B06800F0C3
:1015A0000C0008285BD17068410258D4306881076C
:1015B00003D5E068012840F02C813168206921F0D2
:1015C000F80141EAC00131602178080779D56069E6
:1015D0009549002868D001220A60FFF785F8054682
:1015E000706F81076DD4FFF77FF8401B0228F7D991
:1015F000032012E16068B0F5803F04D1306840F408
:101600008030306011E0B0F5A02F306806D140F492
:1016100080203060316841F4803105E020F4803072
:101620003060316821F480213160606858B1FFF783
:101630005BF8054630688103A8D4FFF755F8401BD6
:101640006528F7D3D4E7FFF74FF8054630688103E4
:101650009CD5FFF749F8401B6528F7D3C8E7E06839
:10166000A8B101213960FFF73FF8054630688107CE
:1016700005D4FFF739F8401B0228F7D9B8E73068DE
:10168000216920F0F80040EAC10030609CE7386032
:10169000FFF72AF805463168880795D5FFF724F843
:1016A000401B0228F7D9A3E70860FFF71DF805469D
:1016B000706F810705D5FFF717F8401B0228F7D98F
:1016C00096E7207841075FD5306C0025C1000AD429
:1016D00000950125316C41F080513164306C00F08F
:1016E000805000900098DFF84481D8F80000C105D0
:1016F00013D4D8F8000040F48070C8F80000FEF75A
:10170000F3FF8146D8F80000C10506D4FEF7ECFFD0
:10171000A0EB09000228F5D96AE7A068012805D0E6
:101720000528306F06D140F004003067306F40F07C
:10173000010005E0400840003067306F20F00400F1
:10174000306741F28938A06860B1FEF7CDFF81466D
:10175000306F810713D4FEF7C7FFA0EB09004045A7
:10176000F6D345E7FEF7C0FF8146306F810706D507
:10177000FEF7BAFFA0EB09004045F6D338E71DB1EC
:10178000306C20F080503064A069002844D0B168EB
:1017900001F00C0108293AD002282AD1002038662D
:1017A000FEF7A2FF05463068810105D5FEF79CFFD4
:1017B000401B0228F7D91BE7E069216A626A0843E7
:1017C000A16A490840EA8210491E40EA0140E16AE4
:1017D00040EA0160706001203866FEF785FF04462C
:1017E0003068810118D4FEF77FFF001B0228F7D96B
:1017F000FEE600203866FEF777FF04463068810178
:101800000AD5FEF771FF001B0228F7D9F0E6012880
:1018100001D1012001E070680020BDE8F28300BF23
:101820000038024000004742800E474200700040EE
:101830000448054A016841F4700101604FF00060FE
:101840001060704788ED00E008ED00E00000000047
:10185000000000000102030406070809000000015F
:10186000000000020000000400000008000000105A
:101870000000002000000040000000800000001B6D
:1018800000000036FEE7FEE7FEE7FEE7FEE77047F2
:101890007047704700F00AB80148FEF715BD000018
:1018A000040200204FF40050FFF7C5B90248416818
:1018B00002788A1842607047A802002010B50749D4
:1018C00079441831064C7C44163404E00A68081D3B
:1018D000114488470146A142F8D110BD2C000000F8
:1018E000380000004EF68851CEF20001086840F43E
:1018F00070000860BFF34F8FBFF36F8F4FF0007021
:10190000E1EE100A7047000017EEFFFF60010000D3
:10191000920400000000002000F00DF8002801D023
:10192000FFF7CCFFAFF300800020AFF30080FFF79C
:10193000F2FA00F002F80120704700F001B8000050
:101940000746384600F002F8FBE7000080B5AFF329
:101950000080024A11001820ABBEFBE726000200FF
:101960000548014603B4684680F30988AFF3008058
:10197000FFF7B8FFFFF7D0FFA5EDF5FE0148804760
:1019800001480047311800086119000800000000F4
:1019900001020304FFF7FEBFFFF7FEBFFFF7FEBF24
:1019A000FFF7FEBFFFF7FEBFFFF7FEBFFFF7FEBF6B
:1019B000FFF7FEBFFFF7FEBFFFF7FEBFFFF7FEBF5B
:1019C000FFF7FEBFFFF7FEBFFFF7FEBFFFF7FEBF4B
:1019D000FFF7FEBFFFF7FEBFFFF7FEBFFFF7FEBF3B
:1019E000FFF7FEBFFFF7FEBFFFF7FEBFFFF7FEBF2B
:1019F000FFF7FEBFFFF7FEBFFFF7FEBFFFF7FEBF1B
:101A0000FFF7FEBFFFF7FEBFFFF7FEBFFFF7FEBF0A
:101A1000FFF7FEBFFFF7FEBFFFF7FEBFFFF7FEBFFA
:101A2000FFF7FEBFFFF7FEBFFFF7FEBFFFF7FEBFEA
:101A3000FFF7FEBFFFF7FEBFFFF7FEBFFFF7FEBFDA
:101A4000FFF7FEBFFFF7FEBFFFF7FEBFFFF7FEBFCA
:101A5000FFF7FEBFFFF7FEBFFFF7FEBFFFF7FEBFBA
:101A6000FFF7FEBFFFF7FEBFFFF7FEBF7E637C7789
:101A70007BF26B6FC53001672BFED7AB76CA82C98C
:101A80007DFA5947F0ADD4A2AF9CA472C0B7FD93C4
:101A900026363FF7CC34A5E5F171D8311504C723BC
:101AA000C31896059A071280E2EB27B27509832CBA
:101AB0001A1B6E5AA0523BD6B329E32F8453D10090
:101AC000ED20FCB15B6ACBBE394A4C58CFD0EFAAAF
:101AD000FB434D338545F9027F503C9FA851A340FD
:101AE0008F929D38F5BCB6DA2110FFF37ED2CD0C73
:101AF00013EC5F974417C4A77E3D645D1973608142
:101B00004FDC222A908846EEB814DE5E0BDBE03212
:101B10003A0A4906245CC2D3AC629195E479E7C8DD
:101B2000376D8DD54EA96C56F4EA657AAE08BA7851
:101B3000252E1CA6B4C6E8DD741F4BBD8B8A703EF3
:101B4000B5664803F60E613557B986C11D9EE1F8AA
:101B5000981169D98E949B1E87E9CE5528DF8CA1F8
:101B6000890DBFE6426841992D0FB0547EBB1652D5
:101B7000096AD53036A538BF40A39E81F3D7FB7CD8
:101B8000E339829B2FFF87348E4344C4DEE9CB5474
:101B90007B9432A6C2233DEE4C950B42FAC34E080D
:101BA0002EA16628D924B2765BA2496D8BD125720D
:101BB000F8F66486689816D4A45CCC5D65B6926C21
:101BC000704850FDEDB9DA5E154657A78D9D84909B
:101BD000D8AB008CBCD30AF7E45805B8B34506D09F
:101BE0002C1E8FCA3F0F02C1AFBD03017E138A6B4B
:101BF0003A9111414F67DCEA97F2CFCEF0B4E67329
:101C000096AC7422E7AD3585E2F937E81C75DF6ED6
:101C100047F11A711D29C5896FB7620EAA18BE1B3C
:101C2000FC563E4BC6D279209ADBC0FE78CD5AF4E2
:101C30001FDDA8338807C731B11210592780EC5F28
:101C400060517FA919B54A0D2DE57A9F93C99CEF84
:101C5000A0E03B4DAE2AF5B0C8EBBB3C8353996185
:101C6000172B047EBA77D626E16914630655210C3A
:101C70007D000030BB002F4A0A2BC1F62D8C233289
:101C8000FF11F0A72B51CECC897D821202FC0C5C97
:101C9000B955D2979BE9F2C1E953F32337C451E117
:101CA0008ABEC0F584EF59D0000001F9000010FC95
:051CB000000224F40015
:040000050800196175
:00000001FF
